:100000000C9462000C948A000C948A000C948A0070
:100010000C948A000C948A000C948A000C948A0038
:100020000C948A000C948A000C948A000C948A0028
:100030000C948A000C948A000C948A000C948A0018
:100040000C94CC020C948A000C943C030C94160380
:100050000C948A000C948A000C948A000C948A00F8
:100060000C948A000C948A000000000023002600F3
:10007000290000000000240027002A0000000000E2
:10008000250028002B0004040404040404040202D4
:100090000202020203030303030301020408102007
:1000A0004080010204081020010204081020000012
:1000B0000008000201000003040700000000000027
:1000C0000000BD0511241FBECFEFD8E0DEBFCDBFBD
:1000D00011E0A0E0B1E0EAE8FEE002C005900D9278
:1000E000A03AB107D9F722E0A0EAB1E001C01D9221
:1000F000AF34B207E1F710E0C2E6D0E004C02197C8
:10010000FE010E940C06C136D107C9F70E94B30355
:100110000C9443070C94000090E0FC01E255FF4F63
:100120002491FC01E656FF4F3491FC01EA57FF4F42
:10013000E491EE23C9F0222339F0233001F1A8F431
:10014000213019F1223029F1F0E0EE0FFF1FE458C1
:10015000FF4FA591B4918FB7F894EC91611126C02F
:1001600030953E233C938FBF08952730A9F0283067
:10017000C9F0243049F7809180008F7D03C08091C1
:1001800080008F7780938000DFCF84B58F7784BD28
:10019000DBCF84B58F7DFBCF8091B0008F778093CC
:1001A000B000D2CF8091B0008F7DF9CF3E2BDACF57
:1001B000CF93DF9390E0FC01E656FF4F24918A57DE
:1001C0009F4FFC0184918823D1F090E0880F991F04
:1001D000FC01EE58FF4FA591B491FC01E458FF4F8C
:1001E000C591D49161110EC09FB7F8948C91E22F04
:1001F000E0958E238C932881E223E8839FBFDF91D3
:10020000CF9108958FB7F894EC91E22BEC938FBFC8
:10021000F6CF3FB7F8948091AE019091AF01A091D5
:10022000B001B091B10126B5A89B05C02F3F19F0D0
:100230000196A11DB11D3FBFBA2FA92F982F882766
:10024000BC01CD01620F711D811D911D42E0660F41
:10025000771F881F991F4A95D1F708958F929F9213
:10026000AF92BF92CF92DF92EF92FF924B015C016F
:100270000E9409016B017C010E9409016C197D0932
:100280008E099F09683E734081059105A8F321E01E
:10029000821A9108A108B10888EEC80E83E0D81E22
:1002A000E11CF11C81149104A104B10429F7FF9011
:1002B000EF90DF90CF90BF90AF909F908F90089578
:1002C000AF92BF92CF92DF92EF92FF920F931F9364
:1002D000CF93DF936C017B018B01040F151FEB01A2
:1002E0005E01AE18BF08C017D10759F06991D60159
:1002F000ED91FC910190F081E02DC6010995892BCB
:1003000079F7C501DF91CF911F910F91FF90EF9089
:10031000DF90CF90BF90AF900895FC01538D448D36
:10032000252F30E0842F90E0821B930B541710F0A0
:10033000CF96089501970895FC01918D828D9817AD
:1003400061F0A28DAE0FBF2FB11D5D968C91928D85
:100350009F5F9F73928F90E008958FEF9FEF0895B6
:10036000FC01918D828D981731F0828DE80FF11D7F
:10037000858D90E008958FEF9FEF0895FC01918D9A
:10038000228D892F90E0805C9F4F821B91098F7393
:100390009927089582EB91E00E94BE0121E0892B0C
:1003A00009F420E0822F089580E090E0892B29F065
:1003B0000E94CA0181110C9400000895FC01A48DD3
:1003C000A80FB92FB11DA35ABF4F2C91848D90E077
:1003D00001968F739927848FA689B7892C93A0895A
:1003E000B1898C91837080648C93938D848D9813E4
:1003F00006C00288F389E02D80818F7D8083089577
:10040000EF92FF920F931F93CF93DF93EC0181E064
:10041000888F9B8D8C8D98131AC0E889F98980810B
:1004200085FF15C09FB7F894EE89FF896083E8893E
:10043000F98980818370806480839FBF81E090E030
:10044000DF91CF911F910F91FF90EF900895F62EBD
:100450000B8D10E00F5F1F4F0F731127E02E8C8D57
:100460008E110CC00FB607FCFACFE889F98980819C
:1004700085FFF5CFCE010E94DE01F1CFEB8DEC0FB1
:10048000FD2FF11DE35AFF4FF0829FB7F8940B8FB9
:10049000EA89FB8980818062CFCFCF93DF93EC0123
:1004A000888D8823B9F0AA89BB89E889F9898C915C
:1004B00085FD03C0808186FD0DC00FB607FCF7CF18
:1004C0008C9185FFF2CF808185FFEDCFCE010E9418
:1004D000DE01E9CFDF91CF910895FC01019000206A
:1004E000E9F73197AF01481B590BBC0182EB91E052
:1004F0000C9460018F929F92AF92BF920F931F93C3
:10050000CF93DF93CDB7DEB7A1970FB6F894DEBFD8
:100510000FBECDBF19A2423008F44AE08E010F5D34
:100520001F4F842E912CB12CA12CA50194010E9467
:10053000EA05E62FB901CA01EA30F4F4E05DD8011A
:10054000EE938D01232B242B252B79F790E080E06F
:10055000109719F0CD010E946D02A1960FB6F89484
:10056000DEBF0FBECDBFDF91CF911F910F91BF9026
:10057000AF909F908F900895E95CE1CFCF93DF9388
:100580000E946D02EC0182E191E00E946D028C0FED
:100590009D1FDF91CF9108951F920F920FB60F927A
:1005A00011242F933F938F939F93AF93BF93809189
:1005B000AA019091AB01A091AC01B091AD01309135
:1005C000A90123E0230F2D3758F50196A11DB11D78
:1005D0002093A9018093AA019093AB01A093AC0151
:1005E000B093AD018091AE019091AF01A091B001A7
:1005F000B091B1010196A11DB11D8093AE01909300
:10060000AF01A093B001B093B101BF91AF919F91A1
:100610008F913F912F910F900FBE0F901F901895C3
:1006200026E8230F0296A11DB11DD2CF1F920F9273
:100630000FB60F9211242F933F934F935F936F93B5
:100640007F938F939F93AF93BF93EF93FF9382EB2F
:1006500091E00E94DE01FF91EF91BF91AF919F91D8
:100660008F917F916F915F914F913F912F910F905B
:100670000FBE0F901F9018951F920F920FB60F92FA
:1006800011242F938F939F93EF93FF93E091C201D7
:10069000F091C3018081E091C801F091C90182FD10
:1006A0001BC090818091CB018F5F8F732091CC0113
:1006B000821741F0E091CB01F0E0EE54FE4F958FB0
:1006C0008093CB01FF91EF919F918F912F910F908C
:1006D0000FBE0F901F9018958081F4CFCF92DF92BC
:1006E000EF92FF920F931F93E82FF92F05C001504F
:1006F00011092109310961F1908196239417B9F309
:1007000005C0015011092109310911F19081962389
:100710009413F7CFC12CD12CE12CF12C0AC08FEF10
:10072000C81AD80AE80AF80A0C151D052E053F0557
:1007300079F080818623841791F36C2D7D2D8E2D89
:100740009F2D1F910F91FF90EF90DF90CF90089514
:1007500060E070E080E090E01F910F91FF90EF90DB
:10076000DF90CF900895789484B5826084BD84B57D
:10077000816084BD85B5826085BD85B5816085BD9C
:1007800080916E00816080936E0010928100809154
:1007900081008260809381008091810081608093DC
:1007A0008100809180008160809380008091B10001
:1007B00084608093B1008091B00081608093B0002C
:1007C00080917A00846080937A0080917A008260C0
:1007D00080937A0080917A00816080937A00809182
:1007E0007A00806880937A001092C10068EE73E00E
:1007F00080E090E00E942E01E091C201F091C301DF
:1008000082E08083E091BE01F091BF011082E0910F
:10081000C001F091C1018FEC80831092CA01E09178
:10082000C601F091C70186E08083E091C401F09198
:10083000C501808180618083E091C401F091C50190
:10084000808188608083E091C401F091C50180813E
:1008500080688083E091C401F091C50180818F7D23
:10086000808385E191E00E94BE0261E085E00E9404
:10087000D80060E086E00E94D80061E084E00E9439
:10088000D80061E08CE00E94D80061E083E00E9423
:10089000D80060E08CE00E948C0060E083E00E9461
:1008A0008C0060E084E00E948C0093E2292E312CC1
:1008B000C0E0D0E027EE822E23E0922EA12CB12CB6
:1008C00034E6432E512C612C712C60E085E00E94AF
:1008D0008C0083E090E00197F1F761E085E00E94F1
:1008E0008C00C1010197F1F760E085E00E948C0067
:1008F000E0EAF0E06491ECE8F0E08491E82FF0E0C9
:10090000EE0FFF1FE859FF4F8591949100E315E723
:1009100020E030E0462F0E946E03611571058105CD
:10092000910559F06F5F7F4F8F4F9F4F9F706115FB
:1009300071058105910509F091C08092A501909201
:10094000A601A092A701B092A8018091A501909163
:10095000A601A091A701B091A80185369105A10536
:10096000B10544F04092A5015092A6016092A70102
:100970007092A80184E291E00E946D02C090A501EE
:10098000D090A601E090A701F090A8014AE0C7012D
:10099000B601F7FE0DC06DE282EB91E00E9400020D
:1009A00066277727CB016C197D098E099F094AE0DC
:1009B0000E947A0282E191E00E946D02C090A5013E
:1009C000D090A601E090A701F090A80161E0F1E5C8
:1009D000CF16D104E104F1040CF060E084E00E9441
:1009E0008C008091A401811152C021E5C216D1046E
:1009F000E104F10414F561E08CE00E948C0061E0F8
:100A000083E00E948C002FB7F8948091AA01909106
:100A1000AB01A091AC01B091AD012FBF8093A001BB
:100A20009093A101A093A201B093A30181E08093D0
:100A3000A40184E391E00E94BE0268EC70E080E0D3
:100A400090E00E942E01209709F43FCF0E94CA0136
:100A5000882309F43ACF0E94000037CF0E944A064B
:100A600026E933E44BE05DE30E94AE0620E030E08F
:100A700040E05FE30E94AE060E9412066093A5016B
:100A80007093A6018093A7019093A8015ECF86E59D
:100A9000C816D104E104F1040CF452C02FB7F89445
:100AA0008091AA019091AB01A091AC01B091AD01F0
:100AB0002FBF4091A0015091A1016091A2017091BE
:100AC000A301841B950BA60BB70B80329F4BA24052
:100AD000B10568F060E08CE00E948C0060E083E08B
:100AE0000E948C001092A4018EE491E0A4CF88E6CD
:100AF00091E00E946D022FB7F8946091AA01709165
:100B0000AB018091AC019091AD012FBFC090A001CD
:100B1000D090A101E090A201F090A3016C197D0991
:100B20008E099F0928EE33E040E050E00E94EA057C
:100B3000CA01B9014AE00E947A028BE791E07BCFBB
:100B4000F1E5CF16D104E104F1040CF076CF2FB714
:100B5000F8948091AA019091AB01A091AC01B09161
:100B6000AD012FBF8093A0019093A101A093A2019A
:100B7000B093A3018DE791E05ECFE2EBF1E0138249
:100B8000128288EE93E0A0E0B0E084839583A68390
:100B9000B78384E091E09183808385EC90E0958732
:100BA000848784EC90E09787868780EC90E0918B37
:100BB000808B81EC90E0938B828B82EC90E0958B24
:100BC000848B86EC90E0978B868B118E128E138E21
:100BD000148E0895A1E21A2EAA1BBB1BFD010DC0A5
:100BE000AA1FBB1FEE1FFF1FA217B307E407F507DD
:100BF00020F0A21BB30BE40BF50B661F771F881FB9
:100C0000991F1A9469F760957095809590959B014E
:100C1000AC01BD01CF010895EE0FFF1F0590F491C7
:100C2000E02D09940E9419066894B1110C94A8064D
:100C300008950E948D0688F09F5798F0B92F992744
:100C4000B751B0F0E1F0660F771F881F991F1AF0B7
:100C5000BA95C9F714C0B13091F00E94A706B1E06F
:100C600008950C94A706672F782F8827B85F39F06E
:100C7000B93FCCF3869577956795B395D9F73EF450
:100C800090958095709561957F4F8F4F9F4F0895F8
:100C9000E89409C097FB3EF4909580957095619516
:100CA0007F4F8F4F9F4F9923A9F0F92F96E9BB27CC
:100CB0009395F695879577956795B795F111F8CF48
:100CC000FAF4BB0F11F460FF1BC06F5F7F4F8F4FB3
:100CD0009F4F16C0882311F096E911C0772321F0A9
:100CE0009EE8872F762F05C0662371F096E8862F41
:100CF00070E060E02AF09A95660F771F881FDAF798
:100D0000880F9695879597F9089557FD9058440F49
:100D1000551F59F05F3F71F04795880F97FB991F5A
:100D200061F09F3F79F08795089512161306140617
:100D3000551FF2CF4695F1DF08C0161617061806A4
:100D4000991FF1CF86957105610508940895E8947F
:100D5000BB2766277727CB0197F908950E94C10624
:100D60000C9432070E94240738F00E942B0720F0D1
:100D7000952311F00C941B070C94210711240C945B
:100D8000A8060E94850670F3959FC1F3950F50E069
:100D9000551F629FF001729FBB27F00DB11D639F2D
:100DA000AA27F00DB11DAA1F649F6627B00DA11DD3
:100DB000661F829F2227B00DA11D621F739FB00D79
:100DC000A11D621F839FA00D611D221F749F3327E9
:100DD000A00D611D231F849F600D211D822F762F82
:100DE0006A2F11249F5750409AF0F1F088234AF05F
:100DF000EE0FFF1FBB1F661F771F881F91505040CB
:100E0000A9F79E3F510580F00C941B070C94A8068F
:100E10005F3FE4F3983ED4F3869577956795B79551
:100E2000F795E7959F5FC1F7FE2B880F911D96956B
:100E3000879597F9089597F99F6780E870E060E0DB
:100E400008959FEF80EC089500240A941616170663
:100E500018060906089500240A94121613061406AB
:100E600005060895092E0394000C11F4882352F00E
:100E7000BB0F40F4BF2B11F460FF04C06F5F7F4FC6
:0A0E80008F4F9F4F0895F894FFCFA5
:100E8A0000000000000260018D014D02BE019C01BC
:100E9A00B0010D0A0053797374656D205374617241
:100EAA007465640044697374616E63652028636DB8
:100EBA00293A20004F626A65637420446574656349
:100ECA007465643A2052656C6179204F4E0054690A
:100EDA006D656F7574205061737365643A2052654D
:100EEA006C6179204F46460057616974696E672EB6
:100EFA002E2E2054696D65723A200073004F626A83
:100F0A00656374205374696C6C20446574656374FA
:100F1A0065643A2054696D65722052657365740080
:00000001FF
